:020000040800F2
:10000000784B002099010008E9210008331B000803
:10001000E52100086D0400083928000800000000F0
:1000200000000000000000000000000001010008C6
:100030007104000800000000450100085523000875
:10004000B3010008B3010008B3010008B3010008C0
:10005000B3010008B3010008B3010008B3010008B0
:10006000B3010008B3010008B3010008B3010008A0
:10007000B3010008B3010008B3010008B301000890
:10008000B3010008B3010008B3010008B301000880
:10009000B3010008B3010008B3010008B301000870
:1000A000B3010008B3010008B3010008B301000860
:1000B000B3010008B3010008B3010008B301000850
:1000C000B3010008B3010008B3010008B301000840
:1000D000B3010008B3010008B3010008B301000830
:1000E000B3010008B3010008B3010008DFF80CD029
:1000F00000F094F800480047F92B0008784B0020E6
:10010000224B19680868B0E8F00F80F30988BFF344
:100110006F8F4FF0000080F311884EF00D0E704786
:100120000000000006480068006880F3088862B696
:1001300061B6BFF34F8FBFF36F8F00DF00BF00BF0B
:1001400008ED00E0EFF30980BFF36F8F0F4B1A68E3
:1001500020E9F00F106008B54FF0BF0080F3118860
:10016000BFF34F8FBFF36F8F03F054F94FF00000D0
:1001700080F31188BDE8084019680868B0E8F00FFE
:1001800080F30988BFF36F8F704700BF1000002015
:10019000EFF3058070470000064880470648004797
:1001A000FEE7FEE7FEE7FEE7FEE7FEE7FEE7FEE727
:1001B000FEE7FEE7CF230008ED000008D2B201E021
:1001C00000F8012B491EFBD270470022F6E710B55C
:1001D00013460A4604461946FFF7F0FF204610BDB5
:1001E000421C10F8011B0029FBD1801A704730B562
:1001F0000B46014600202022012409E021FA02F5E5
:100200009D4205D303FA02F5491B04FA02F528447E
:10021000151EA2F10102F1DC30BD0000064C074DB5
:1002200006E0E06840F0010394E8070098471034C6
:10023000AC42F6D3FFF75EFF483A0008683A000880
:100240001CB51548042100238022CDE9001013A11C
:10025000154803F043F91548032100238022CDE916
:10026000001013A1154803F039F9154801210023A6
:100270008022CDE9001013A1154803F02FF915488D
:10028000022100238022CDE9001013A1154803F0BC
:1002900025F903F081F81CBDB4000020706F77656C
:1002A000725F7461736B0000612C0008B80000205D
:1002B000666C696768745F7461736B00B52A0008C7
:1002C000BC0000206C65645F7461736B000000000B
:1002D000F52A0008C0000020636F6D5F7461736BC6
:1002E000000000006D2A000828B900210B4A117097
:1002F0000B4A117010E001280ED109490978491CF8
:10030000074A1170114609780A2905DB0121034AC1
:1003100011700021024A117070470000B0000020E7
:10032000C400002030B585B011213F48FFF74DFFD4
:100330003D4801F0F5FC3C48FFF752FF10B90120A1
:1003400005B030BD38480078732807D1364840786A
:10035000672803D134488078672801D00120EFE76F
:1003600000240025002004E02F49095C0C44411CB6
:10037000C8B20D28F8DB2C48407B00062A49897B4F
:1003800040EA01402849C97B40EA01202649097C0E
:1003900040EA0105AC4201D00120D1E722480079B2
:1003A0002149C97840EA012000B2204908801E484E
:1003B00080791D49497940EA012000B21B49C88073
:1003C0001948007A1849C97940EA012000B2174952
:1003D00088801548807A1449497A40EA012000B2A1
:1003E000124948801048C07A08720F48007B487252
:1003F0000846407A097A0D4AB2F902200B4BB3F94C
:100400000430CDE90132CDE903100848B0F9060007
:1004100000900648B0F90030392205A10CA002F086
:100420000DFA00208CE70000664700205C470020A2
:100430004170706C69636174696F6E5C4150505FAC
:10044000526563656976655F446174612E6300007F
:100450005B25733A25645D3A25642C25642C25645C
:100460002C25642C25642C25640A000000BFFEE7BF
:10047000704772B600BFFEE770B5044600F0B0F9F1
:1004800006462546681C10B104480078054400BFA4
:1004900000F0A6F9801BA842FAD370BD0800002026
:1004A0002DE9F8470346002294466EE14FF001081B
:1004B00008FA02F4D1F8008008EA0400A0427DD1D5
:1004C000DFF8DCA2D1F80480A8EB0A09D0453AD0C5
:1004D00014DCB8F1030F50D009DCB8F1000F31D0B3
:1004E000B8F1010F1CD0B8F1020F49D120E0B8F1EA
:1004F000110F18D0B8F1120F42D11EE0B9F5881FC4
:1005000025D006DCB9F5803F20D0B9F5801F37D162
:100510001AE0B9F5001F18D0B9F5041F30D117E063
:10052000D1F80CC02DE0D1F80C8008F1040C28E0C3
:10053000D1F80C8008F1080C23E0D1F80C8008F108
:100540000C0C1EE000BF00BF00BF00BF00BF00BF1B
:10055000D1F80880B8F1000F02D14FF0040C0BE085
:10056000D1F80880B8F1010F03D14FF0080C1C61DD
:1005700002E04FF0080C5C6103E04FF0000C00E07B
:1005800000BF00BFFF2801D8984601E003F104082E
:100590004646FF2802D84FEA820803E0A2F1080885
:1005A0004FEA88084746D6F800804FF00F0909FA4D
:1005B00007F928EA09080CFA07F900E088E048EA98
:1005C0000908C6F80080D1F8048008F08058B8F116
:1005D000805F7DD100BFDFF8CC81D8F8188048F06B
:1005E0000108DFF8C091C9F81880C846D8F818800B
:1005F00008F00108CDF8008000BF00BF4FEAB9380D
:100600004FEA920958F829504FEA82784FEA187950
:100610004FF00F0808FA09F825EA0805DFF8888185
:10062000434502D14FF0000816E0DFF880814345D2
:1006300002D14FF001080FE0DFF87481434502D189
:100640004FF0020808E0DFF86C81434502D14FF01B
:10065000030801E04FF004084FEA82794FEA197964
:1006600008FA09F848EA0505DFF84C814FEA9209D3
:1006700048F82950D1F8048008F48018B8F5801F94
:100680000AD1DFF83881D8F8008048EA0008DFF89E
:100690002C91C9F8008009E0DFF82081D8F80080AB
:1006A00028EA0008DFF81491C9F80080D1F8048026
:1006B00008F40018B8F5001F10D1DFF8008108F128
:1006C0000408D8F8008048EA0008DFF8F09000E05D
:1006D0005AE009F10409C9F800800DE0DFF8DC8078
:1006E00008F10408D8F8008028EA0008DFF8CC9068
:1006F00009F10409C9F80080D1F8048008F4003831
:10070000B8F5003F0ED1DFF8B480A8F10408D8F89E
:10071000008048EA0008DFF8A490A9F10409C9F8AC
:1007200000800DE0DFF89480A8F10408D8F800807C
:1007300028EA0008DFF88490A9F10409C9F80080CC
:10074000D1F8048008F48038B8F5803F0ED1DFF886
:100750006C80A8F10808D8F8008048EA0008DFF8A3
:100760005C90A9F10809C9F800800DE0DFF84C8021
:10077000A8F10808D8F8008028EA0008DFF83C90C3
:10078000A9F10809C9F80080521CD1F8008028FAA4
:1007900002F8B8F1000F7FF489AEBDE8F8870000D9
:1007A000000011100010024000080140000C014040
:1007B00000100140001401400800014008040140FD
:1007C00010B5C26821EA020302EA010443EA0443C5
:1007D000036110BD0AB1016101E00B0403617047C0
:1007E00001480068704700000000002003480068CE
:1007F0000349097808440149086070470000002057
:100800000800002010B50848006840F010000649B4
:100810000860032000F098F80F2000F007F800F0BF
:100820002BF8002010BD00000020024070B50446E7
:100830000E4800784FF47A71B1FBF0F00C4909686A
:10084000B1FBF0F5284600F0AFFD08B1012070BD06
:10085000102C07D200222146501E00F037F8054820
:10086000046001E00120F2E70020F0E7080000202A
:100870000C0000200400002008B500BF114880696A
:1008800040F001000F4988610846806900F00100CE
:10089000009000BF00BF00BF0846C06940F0805014
:1008A000C8610846C06900F08050009000BF00BFDA
:1008B00000BF0549486820F0E06040F000704860E3
:1008C00000BF08BD00100240000001402DE9F05FAC
:1008D00080460D461646002701F0C0FF0746394600
:1008E0002A46334601F00700C0F1070ABAF1040FA7
:1008F00002D94FF0040A01E0C0F1070AD14600F125
:10090000040ABAF1070F02D24FF0000A01E0A0F189
:10091000030AD4464FF0010A0AFA09FAAAF1010AB9
:100920000AEA020A0AFA0CFA4FF0010B0BFA0CFB66
:10093000ABF1010B0BEA030B4AEA0B0421464046DC
:1009400001F094FFBDE8F09F00BF00F00702064BE6
:1009500019684FF6FF031940044B0B4343EA022189
:10096000014B196000BF70470CED00E00000FA0574
:1009700070B504460D460CB9012070BD5A48006898
:1009800000F00700A8420ED25748006820F0070088
:100990002843554908600846006800F00700A8424F
:1009A00001D00120E9E7207800F0020002281DD1E3
:1009B000207800F00400042805D14C48406840F439
:1009C000E0604A494860207800F00800082805D116
:1009D0004648406840F46050444948604348406895
:1009E00020F0F000A168084340494860207800F0FA
:1009F000010078B36068012806D13C48006800F423
:100A0000003090B90120B8E76068022806D1374865
:100A1000006800F0007040B90120AEE7334800687C
:100A200000F0020008B90120A7E73048406820F034
:100A30000300616808432D494860FFF7D1FE064670
:100A400009E0FFF7CDFE801B41F28831884202D9D0
:100A5000032092E707E02548406800F00C00616839
:100A6000B0EB810FEDD12048006800F00700A842EC
:100A70000ED91D48006820F0070028431A49086075
:100A80000846006800F00700A84201D0012074E782
:100A9000207800F00400042807D11448406820F4AE
:100AA000E060E168084311494860207800F00800E0
:100AB000082808D10D48406820F46050216940EAB8
:100AC000C1000A49486000F03FF808494968C1F38D
:100AD0000311074A515CC84006490860064800688F
:100AE000FFF7A4FE002048E700200240001002406B
:100AF0002E3A00080C000020040000200148006885
:100B0000704700000C00002000B5FFF7F7FF044914
:100B10004968C1F30221034A515CC84000BD00008E
:100B2000001002403E3A000800B5FFF7E7FF044915
:100B30004968C1F3C221034A515CC84000BD0000AE
:100B4000001002403E3A000870B500210022002447
:100B500000230020134D696801F00C05F5B1042D48
:100B600002D0082D19D101E00F4819E00F4DC1F353
:100B70008346AB5D01F4803555B10A4D6D68C5F310
:100B800040450B4E725D084D5D43B5FBF2F402E04B
:100B9000084D03FB05F4204602E000BF024800BFF9
:100BA00000BF70BD0010024000127A001C3A00081D
:100BB0002C3A000800093D00F8B504460CB90120A4
:100BC000F8BD207800F00100002878D0F84840688F
:100BD00000F00C0004280CD0F548406800F00C0030
:100BE000082811D1F248406800F48030B0F5803F09
:100BF0000AD1EF48006800F4003000285FD0606838
:100C000000285CD10120DBE700BF6068B0F5803FC1
:100C100006D1E748006840F48030E549086028E0E4
:100C2000606858B9E248006820F48030E049086004
:100C30000846006820F4802008601AE06068B0F57B
:100C4000A02F0BD1DA48006840F48020D849086012
:100C50000846006840F4803008600AE0D448006824
:100C600020F48030D24908600846006820F48020D3
:100C7000086000BF606888B1FFF7B2FD054606E076
:100C8000FFF7AEFD401B642801D9032098E7C84850
:100C9000006800F400300028F2D010E0FFF7A0FD5B
:100CA000054606E0FFF79CFD401B642801D90320A0
:100CB00086E7BF48006800F400300028F2D12078B1
:100CC00000F00200022857D1B948406800F00C003B
:100CD00050B1B748406800F00C00082818D1B4485B
:100CE000406800F4803098B9B148006800F0020014
:100CF00020B12069012801D0012061E7AC480068DB
:100D000020F0F800616940EAC100A949086033E0B9
:100D10002069E8B10120A7490860FFF761FD054699
:100D200006E0FFF75DFD401B022801D9032047E7DD
:100D30009F48006800F002000028F2D09C4800683C
:100D400020F0F800616940EAC1009949086013E0A9
:100D5000002098490860FFF743FD054606E0FFF7CD
:100D60003FFD401B022801D9032029E79048006875
:100D700000F002000028F2D1207800F008000828D6
:100D80002DD1A069B8B101208B490860FFF728FD7B
:100D9000054606E0FFF724FD401B022801D9032089
:100DA0000EE78348406A00F002000028F2D00120DC
:100DB00001F01CFA13E000207F490860FFF710FDE6
:100DC000054606E0FFF70CFD401B022801D9032071
:100DD000F6E67748406A00F002000028F2D1207859
:100DE00000F00400042873D100277148C06900F0A6
:100DF000805070B900BF6E48C06940F080506C49A7
:100E0000C8610846C06900F08050009000BF00BF74
:100E100001276A48006800F48070B0B9674800682C
:100E200040F4807065490860FFF7DAFC054606E08B
:100E3000FFF7D6FC401B642801D90320C0E65F48B9
:100E4000006800F480700028F2D000BFE06801283C
:100E500006D15748006A40F001005549086227E072
:100E6000E06858B95248006A20F001005049086211
:100E70000846006A20F00400086219E0E0680528CE
:100E80000BD14B48006A40F004004949086208460B
:100E9000006A40F0010008620AE04548006A20F05C
:100EA0000100434908620846006A20F00400086215
:100EB00000BFE068A0B1FFF793FC054609E0FFF72B
:100EC0008FFC401B41F28831884202D9032077E62B
:100ED00022E03748006A00F002000028EFD012E05C
:100EE000FFF77EFC054608E0FFF77AFC401B41F265
:100EF0008831884201D9032062E62D48006A00F05B
:100F000002000028F0D1012F05D12948C06920F046
:100F100080502749C86100BFE069C8B324484068D1
:100F200000F00C00082860D0E069022848D10020B9
:100F300020490866FFF754FC054606E0FFF750FC21
:100F4000401B022801D903203AE61948006800F046
:100F500000700028F2D1206AB0F5803F07D1144814
:100F6000406820F40030A168084311494860D4E982
:100F7000080108430E49496821F4741108430C49DB
:100F8000486001200B490866FFF72AFC054607E088
:100F90003DE0FFF725FC401B022801D903200FE6A6
:100FA0000348006800F000700028F2D02FE0000035
:100FB00000100240000042428004424200700040A3
:100FC000002014490866FFF70BFC054606E0FFF712
:100FD00007FC401B022801D90320F1E50E480068F8
:100FE00000F000700028F2D111E0E069012800D182
:100FF000E6E50948466806F48031206A814204D15A
:1010000006F47011606A814201D00120D8E5002009
:10101000D6E50000000042420010024010B5044630
:101020000CB9012010BD606A38B96068B0F5827FE4
:1010300000D105E00021E16102E000212161616150
:101040000021A16294F8510028B9002084F85000D2
:10105000204600F043F8022084F851002068006820
:1010600020F0400021680860A08800F48270218987
:1010700001F404410843A18901F400610843217C83
:1010800001F002010843217D01F001010843218B99
:1010900001F400710843217F01F038010843202149
:1010A000095D01F080010843218D01F400510843DE
:1010B000216808600421A06901EA104021684860A5
:1010C0002068C06920F400602168C8610020606564
:1010D000012084F851000020A4E7000010B586B07C
:1010E000044600200290039004900590194920685E
:1010F00088422DD100BF1848806940F480501649BD
:1011000088610846806900F48050019000BF00BFEC
:1011100000BF0846806940F0040088610846806985
:1011200000F00400019000BF00BFA0200290022048
:1011300003900320059002A90848FFF7B1F9402069
:10114000029000200390049002A90448FFF7A8F938
:1011500006B010BD00300140001002400008014000
:101160002DE9FE4F04460F4690461D460C9E012079
:101170000190FFF735FB814694F851B0606802900A
:10118000AA46BBF1010F0BD00298B0F5827F04D1C3
:10119000A06810B9BBF1040F02D00220BDE8FE8F99
:1011A0001FB1B8F1000F00D00DB90120F6E700BF64
:1011B00094F85000012801D10220EFE7012084F8C3
:1011C000500000BF94F85100042802D0052084F894
:1011D000510000206065C4F83880E587A587276343
:1011E000E586A586206460642068006800F0400001
:1011F000402805D02068006840F040002168086061
:10120000E068B0F5006F52D1606810B1BAF1010F1B
:1012100009D1206B00882168C860206B801C206386
:10122000E08E401EE0863BE02068806800F002000F
:10123000022810D1E08E70B1019801280BD1206BEB
:1012400000882168C860206B801C2063E08E401EEF
:10125000E086002001902068806800F0010068B1FD
:10126000E08F58B12068C068A16B0880A06B801C1B
:10127000A063E08F401EE08701200190FFF7B0FAE5
:10128000A0EB0900B0420BD3701C48B1012084F8D8
:10129000510000BF002084F8500000BF03207DE70C
:1012A000E08E0028C0D1E08F0028BDD152E06068F8
:1012B00010B1BAF1010F09D1206B007821680873D1
:1012C000206B401C2063E08E401EE0863CE02068DE
:1012D000806800F00200022810D1E08E70B1019801
:1012E00001280BD1206B007821680873206B401C0B
:1012F0002063E08E401EE086002001902068806818
:1013000000F0010068B1E08F58B12068C068A16B9F
:101310000870A06B401CA063E08F401EE087012096
:101320000190FFF75DFAA0EB0900B04201D3701CF9
:1013300000B94EB9012084F8510000BF002084F8A4
:10134000500000BF032029E7E08E0028BFD1E08FC6
:101350000028BCD14A463146204600F05BFF40B130
:101360002020606500BF002084F8500000BF0120ED
:1013700014E7A06850B900BF002000902068C06842
:10138000009020688068009000BF00BF012084F8B2
:10139000510000BF002084F8500000BF606D08B10C
:1013A0000120FBE60020F9E670B504462546681EDC
:1013B000B0F1807F01D301200FE0681E4FF0E021E3
:1013C00048610F214FF0FF3001F050FA00204FF03C
:1013D000E021886107200861002070BD10B5034638
:1013E000002200BF93F83C00012801D1022010BD6B
:1013F000012083F83C0000BF22F0FF00CC6840EAE7
:10140000040222F440708C6840EA040222F48060F6
:101410004C6840EA040222F400600C6840EA0402CE
:1014200022F480500C6940EA040222F400504C6916
:1014300040EA040222F48040CC6940EA04021868C1
:10144000426400BF002083F83C0000BF00BFCEE72D
:1014500030B502460B4600BF92F83C00012801D18E
:10146000022030BD012082F83C0000BF022082F83B
:101470003D00106844681068816824F070041868A2
:10148000044310684460104D1068A8420BD01068E7
:10149000B0F1804F07D00D4D1068A84203D00C4D1D
:1014A0001068A84205D121F08001586801431068F6
:1014B0008160012082F83D0000BF002082F83C00DE
:1014C00000BF00BFCDE70000002C01400004004039
:1014D0000008004010B504460CB9012010BD94F876
:1014E0003D0028B9002084F83C00204600F026F892
:1014F000022084F83D00211D206800F069FF0120D2
:1015000084F8460000BF84F83E0001213F200155C9
:10151000402001554120015500BF00BF012084F843
:10152000420043200155442001554520015500BF8C
:10153000012084F83D000020D0E7000008B5244ACF
:10154000016891420DD100BF2249896941F40061CF
:10155000204A91611146896901F40061009100BF40
:1015600035E00168B1F1804F0DD100BF1949C9695B
:1015700041F00101174AD1611146C96901F0010129
:10158000009100BF23E0144A016891420DD100BFD1
:101590001049C96941F002010E4AD1611146C96979
:1015A00001F00201009100BF11E00C4A0168914274
:1015B0000DD100BF0749C96941F00401054AD16155
:1015C0001146C96901F00401009100BF00BF08BDC8
:1015D000002C0140001002400004004000080040C0
:1015E0002DE9F04104460D46002700BF94F83C0069
:1015F000012802D10220BDE8F081012084F83C00DE
:1016000000BF022084F83D002068866826F0770637
:1016100026F47F46206886602868502833D00CDC8A
:10162000202850D004DC00284BD0102851D149E0AC
:10163000302849D040284CD139E060282DD070287E
:1016400007D0B0F5805F03D0B0F5005F41D10DE069
:1016500041E0D5E902136A68206800F0FBFE2068CB
:10166000866846F077062068866034E0D5E9021384
:101670006A68206800F0EEFE2068806840F48040D0
:101680002168886027E0EA686968206800F0B2FF96
:101690005021206800F0E9FE1DE0EA6869682068D2
:1016A00000F0BBFF6021206800F0DFFE13E0EA6875
:1016B0006968206800F09EFF4021206800F0D5FE98
:1016C00009E000BF00BF00BF2968206800F0CDFE20
:1016D00001E0012700BF00BF012084F83D0000BFEA
:1016E000002084F83C0000BF384684E710B586B07F
:1016F0000446002002900390049005903C49206825
:10170000884217D100BF3B48806940F00400394946
:1017100088610846806900F00400019000BF00BFA6
:101720000815029002200390059002A93248FEF7A6
:10173000B7FE5BE02068B0F1804F16D100BF2D48A6
:10174000806940F004002B4988610846806900F0F8
:101750000400019000BF00BF02200290039005909A
:1017600002A92548FEF79CFE40E0244920688842F3
:1017700021D100BF1F48806940F008001D498861E1
:101780000846806900F00800019000BF00BF1020EB
:10179000029002200390059002A91948FEF780FEEE
:1017A00000BF1849486820F4406040F0E06040F411
:1017B000006048601AE014492068884216D100BFD2
:1017C0000C48806940F008000A4988610846806931
:1017D00000F00800019000BF00BF481502900220F1
:1017E0000390059002A90648FEF75AFE06B010BD08
:1017F000002C01400010024000080140000400409D
:10180000000C014000000140000800402DE9F041BB
:1018100004460D461646002700BF94F83C000128F8
:1018200002D10220BDE8F081012084F83C0000BF15
:1018300036B1042E1BD0082E31D00C2E5ED145E0DF
:101840002946206800F01AFE2068806940F00800F0
:10185000216888612068806920F00400216888611F
:1018600020688069296908432168886148E0294621
:10187000206800F033FE2068806940F40060216831
:1018800088612068806920F4806021688861206810
:101890008069296940EA01202168886130E0294691
:1018A000206800F04FFE2068C06940F00800216801
:1018B000C8612068C06920F004002168C861206800
:1018C000C069296908432168C86119E02946206870
:1018D00000F06CFE2068C06940F400602168C861B7
:1018E0002068C06920F480602168C8612068C069F0
:1018F000296940EA01202168C86101E0012700BF91
:1019000000BF00BF002084F83C0000BF384689E7D4
:1019100010B504460CB9012010BD94F83D0028B95B
:10192000002084F83C00204600F025F8022084F8CE
:101930003D00211D206800F04BFD012084F8460089
:1019400000BF84F83E0001213F2001554020015591
:101950004120015500BF00BF012084F84200432010
:101960000155442001554520015500BF012084F850
:101970003D000020D0E7704710B504460CB90120A7
:1019800010BDA06900B100E000BF94F8410028B983
:10199000002084F84000204600F02AF8242084F833
:1019A00041002068C06820F400502168C8602046CB
:1019B00000F07EFE2068006920F4904021680861F4
:1019C0002068406920F02A00216848612068C068CA
:1019D00040F400502168C86000206064202084F832
:1019E000410084F842000020606300BFC8E70000A7
:1019F00010B586B004460020029003900490059034
:101A00001949206888422DD100BF1848C06940F4A8
:101A100000301649C8610846C06900F400300190E2
:101A200000BF00BF00BF0846806940F00400886125
:101A30000846806900F00400019000BF00BF042048
:101A40000290022003900320059002A90848FEF7A7
:101A500027FD0820029000200390049002A904486A
:101A6000FEF71EFD06B010BD00440040001002400D
:101A7000000801402DE9F84F04460E4617469946E6
:101A80004FF0000A94F84100202850D106B117B950
:101A90000120BDE8F88F00206064212084F8410017
:101AA000FEF79EFE8246A784E784A068B0F5805FBB
:101AB00004D1206910B90025B04602E035464FF048
:101AC00000081EE05346002280212046CDF80090F9
:101AD00000F06CFE20B1202084F841000320D8E7FC
:101AE00045B9B8F80000C0F308002168486008F163
:101AF000020803E02878216848606D1CE08C401ED5
:101B0000E084E08C0028DDD15346002240212046AD
:101B1000CDF8009000F04AFE20B1202084F841006A
:101B20000320B6E7202084F841000020B1E702201E
:101B3000AFE700BFFEE7000010B5002204210E4809
:101B4000FEF748FE642001F00DFC012204210A4842
:101B5000FEF740FEC82001F005FC002204210648E3
:101B6000FEF738FE642001F0FDFB0122042102484B
:101B7000FEF730FE10BD0000000C014010B5002241
:101B800004210648FEF726FE642001F0EBFB01224B
:101B900004210248FEF71EFE10BD0000000C0140AB
:101BA00010B505220E49102000F080F805220D49DD
:101BB000302000F0CFF805220949102000F076F817
:101BC000002109E00648405C064A525C904201D080
:101BD000012010BD481CC1B20529F3DB0020F8E745
:101BE000CA000020C500002010B5C820FEF744FC44
:101BF00002E00A20FEF740FCFFF7D2FF0128F8D0F0
:101C000000F022F8ED2202A107A000F017FE10BD9F
:101C1000496E746572466163655C496E745F5349D1
:101C2000323452312E6300005B25733A25645D53D4
:101C3000493234523120496E6974205375636365AB
:101C40007373210D0A00000010B500224FF480715B
:101C50001448FEF7BFFD052213492A2000F07AF848
:101C60000121212000F098F80121222000F094F8B1
:101C70002821252000F090F81121312000F08CF867
:101C80000621262000F088F80F21202000F084F89B
:101C9000FF21272000F080F8012211020148FEF701
:101CA00099FD10BD00080140C50000202DE9F0415C
:101CB00007460D461646002210210C48FEF78AFD05
:101CC000384600F0C9FA8046002405E0002000F004
:101CD000C3FA2855601CC4B2B442F7DB01221021BC
:101CE0000248FEF777FD4046BDE8F081000801405C
:101CF00070B50446002210210848FEF76BFD20460F
:101D000000F0AAFA002000F0A7FA054601221021EF
:101D10000248FEF75FFD284670BD00000008014044
:101D200070B504460720FFF7E3FF05462946272044
:101D300000F032F805F0400050B111222146612038
:101D4000FFF7B4FFFF21E22000F026F8002070BD6D
:101D50000120FCE72DE9F04107460C46154600221C
:101D600010210C48FEF736FD384600F075FA804623
:101D7000002605E014F8010B00F06EFA701CC6B2E4
:101D8000AE42F7DB012210210248FEF723FD404658
:101D9000BDE8F0810008014070B505460C46002200
:101DA00010210848FEF716FD284600F055FA0646B1
:101DB000204600F051FA012210210248FEF70AFDE8
:101DC000304670BD0008014000B585B0002001908C
:101DD00002900390049000BF3048806940F01000EA
:101DE0002E4988610846806900F01000009000BF0D
:101DF00000BF00BF0846806940F0200088610846A7
:101E0000806900F02000009000BF00BF00BF0846BE
:101E1000806940F0040088610846806900F0040091
:101E2000009000BF00BF00BF0846806940F0080076
:101E300088610846806900F00800009000BF00BF7C
:101E4000012241F610011648FEF7C4FC01224CF2B3
:101E500004011448FEF7BEFC00224FF480711048C4
:101E6000FEF7B8FC41F6101001900120029000200E
:101E700003900220049001A90948FEF711FB4CF2DF
:101E800004000190012002900020039002200490A1
:101E900001A90448FEF704FB05B000BD0010024094
:101EA00000080140000C014010B50E480E490860C2
:101EB0004FF48270486000210B488160C16001616D
:101EC00041614FF4007181611021C1610021016203
:101ED000416281620A21C162FFF7A0F808B1FEF7F2
:101EE000C8FA10BD00300140D400002000B595B004
:101EF000002011901290139014900F9010901C21BC
:101F000008A8FEF762F920216846FEF75EF92B4823
:101F10002B4908600320486000212948816040F275
:101F2000E731C1600021016141618161FFF7D2FAAF
:101F300008B1FEF79EFA4FF48050119011A9204885
:101F4000FFF74EFB08B1FEF794FA1D48FFF7E0FCDF
:101F500008B1FEF78EFA00200F9010900FA91848D4
:101F6000FFF776FA08B1FEF784FA602008900020A7
:101F700009900A900B900C900D900E90082208A9E1
:101F80000F48FFF743FC08B1FEF773FA00200090FA
:101F900001900290039004904FF4005005900020AF
:101FA000079069460648FFF719FA08B1FEF761FA8B
:101FB0000348FFF79BFB15B000BD0000002C01405B
:101FC0002C01002000B58DB0002009900A900B90E4
:101FD0000C90079008901C216846FEF7F6F84FF029
:101FE00080401F4908600320486000211C48816030
:101FF00040F2E731C160002101618161FFF76AFAB7
:1020000008B1FEF736FA4FF48050099009A9144838
:10201000FFF7E6FA08B1FEF72CFA1148FFF778FC53
:1020200008B1FEF726FA00200790089007A90C488F
:10203000FFF70EFA08B1FEF71CFA602000900020AE
:10204000019002900490042269460548FFF7DEFBE8
:1020500008B1FEF70EFA0248FFF748FB0DB000BDCD
:102060007401002000B58DB0002009900A900B90FB
:102070000C90079008901C216846FEF7A6F82048AF
:10208000204908600320486000211E48816040F21A
:10209000E731C160002101618161FFF71BFA08B1DE
:1020A000FEF7E7F94FF48050099009A91548FFF7AA
:1020B00097FA08B1FEF7DDF91248FFF729FC08B1DD
:1020C000FEF7D7F900200790089007A90D48FFF701
:1020D000BFF908B1FEF7CDF9602000900020019013
:1020E00002900490002269460648FFF78FFB08B172
:1020F000FEF7BFF90348FFF7F9FA0DB000BD000085
:1021000000040040BC01002000B58DB00020099003
:102110000A900B900C90079008901C216846FEF7DF
:1021200054F82048204908600320486000211E48D8
:10213000816040F2E731C160002101618161FFF7F8
:10214000C9F908B1FEF795F94FF48050099009A933
:102150001548FFF745FA08B1FEF78BF91248FFF76B
:10216000D7FB08B1FEF785F900200790089007A972
:102170000D48FFF76DF908B1FEF77BF9602000907C
:1021800000200190029004900C2269460648FFF757
:102190003DFB08B1FEF76DF90348FFF7A7FA0DB054
:1021A00000BD0000000800400402002010B50B48EC
:1021B0000B4908604FF4E130486000210848816015
:1021C000C16001610C21416100218161C161FFF7A2
:1021D000D3FB08B1FEF74DF910BD000000440040EC
:1021E0004C02002000BFFEE700BFFEE708B508492B
:1021F0000968C9084FF47A72B1FBF2F141430091CA
:1022000000BF00BF00994A1E00920029F9D108BD05
:102210000C000020F8B504460E4615463346012250
:1022200002212046009500F029F828B1606D40F0A9
:10223000200060650320F8BD33460022802120463F
:10224000009500F01BF828B1606D40F0200060653B
:102250000320F0E70020EEE701B582B000200190F6
:102260004FF47A70012301AA02A900900248FEF7F8
:1022700077FF9DF804000EBDD40000202DE9F84F33
:1022800004460D4690461E46DDF82890FEF7A8FA53
:10229000A0EB0900371AFEF7A3FA82462C48006823
:1022A000C0F3CB307843009045E0701C002842D04A
:1022B000FEF796FAA0EB0A00B84200D2A7BB20684E
:1022C000406820F0E000216848606068B0F5827FD7
:1022D0000DD1A068B0F5004F03D0A068B0F5806FB5
:1022E00005D12068006820F0400021680860A06ADD
:1022F000B0F5005F0DD100BF2068006820F40050E9
:10230000216808602068006840F400502168086077
:1023100000BF012084F8510000BF002084F8500065
:1023200000BF0320BDE8F88FFFE7009800B9002741
:102330000098401E0090206880682840A84201D183
:10234000012000E000204045AFD10020EAE7000076
:102350000C00002010B501F0D5F9012801D001F0E2
:10236000A3F8FEF743FA10BD00B58FB0282105A8E9
:10237000FDF72BFF14216846FDF727FF012005908C
:1023800000040690002007900120099002200C9084
:10239000C1030D914FF4E0110E9105A8FEF70CFC5E
:1023A00008B1FEF766F80F2000900220019000208F
:1023B00002904FF480600390002004900221684650
:1023C000FEF7D6FA08B1FEF754F80FB000BD70471B
:1023D00010B502681C4B984208D0B0F1804F05D070
:1023E0001A4B984202D01A4B984203D122F0700245
:1023F0004B681A43144B984208D0B0F1804F05D077
:10240000124B984202D0124B984203D122F44072F0
:10241000CB681A4322F080034C6943EA040202604D
:102420008B68C3620B688362074B984201D10B69CA
:10243000036301234361036903F001031BB10369D3
:1024400023F00103036110BD002C01400004004093
:102450000008004030B50C46816821F47F4142EA13
:10246000032525432943816030BD0A46816821F058
:10247000700142F0070319438160704730B5026A6A
:10248000056A25F0010505624368846924F070043B
:1024900024F003040D682C4322F002028D682A43C5
:1024A0000D4DA84206D100BF22F00802CD682A4394
:1024B00022F00402084DA84207D123F4807323F4CC
:1024C00000734D692B438D692B43436084614D68D4
:1024D0004563026230BD0000002C014030B5026A45
:1024E000056A25F0100505624368846924F4E04418
:1024F00024F440740D6844EA052422F020028D681B
:1025000042EA05120E4DA84207D100BF22F0800218
:10251000CD6842EA051222F04002094DA84209D1D5
:1025200023F4806323F400634D6943EA85038D69D6
:1025300043EA8503436084614D688563026230BD70
:10254000002C014030B5026A056A25F480750562E9
:102550004368C46924F0700424F003040D682C431C
:1025600022F400728D6842EA05220F4DA84207D17D
:1025700000BF22F40062CD6842EA052222F48062A4
:10258000094DA84209D123F4805323F400534D6927
:1025900043EA05138D6943EA05134360C4614D683E
:1025A000C563026230BD0000002C014030B5036AF3
:1025B000056A25F4805505624468C26922F4E04248
:1025C00022F440720D6842EA052223F400538D681C
:1025D00043EA0533064DA84204D124F480444D69F2
:1025E00044EA85144460C2614D680564036230BDED
:1025F000002C014030B50B461446026A056A25F0EE
:1026000001050562816921F0F00141EA041122F01F
:102610000A021A438161026230BD30B50B4614468E
:10262000026A056A25F010050562816921F470418E
:1026300041EA043122F0A00242EA031281610262FF
:1026400030BD00BF00BF02680C3252E8002F22F4F8
:10265000907102680C3242E80013002BF3D100BFE6
:1026600000BF00BF0268143252E8002F22F00101BF
:102670000268143242E80013002BF3D100BF016B53
:1026800001290ED100BF00BF02680C3252E8002FB2
:1026900022F0100102680C3242E80013002BF3D143
:1026A00000BF202180F84210002101637047000024
:1026B00070B504462168096921F44051E26811436C
:1026C000226811612269A1681143626941EA020529
:1026D0002168C96841F20C62914329432268D160A4
:1026E0002168496921F44071A2691143226851614E
:1026F0002D4A2168914202D1FEF716FA01E0FEF759
:1027000003FA00EBC00101EB001162689200B1FB1B
:10271000F2F100EBC00202EB001263689B00B2FB17
:10272000F3F26423B2FBF3F202EBC20303EB0212F7
:10273000A1EB8201322202EB01116422B1FBF2F122
:1027400001F0F00100EBC00202EB001263689B0095
:10275000B2FBF3F26423B2FBF3F201EB021200EBE3
:10276000C00101EB001163689B00B1FBF3F100EBCA
:10277000C00303EB00136668B600B3FBF6F36426F0
:10278000B3FBF6F303EBC30606EB0313A1EB8301E4
:10279000322303EB01116423B1FBF3F101F00F01CC
:1027A00011442268916070BD003801402DE9F84362
:1027B00004460D4617469846089E31E0701C70B3DB
:1027C000FEF70EF8A0EB0800B04200D816B90320BF
:1027D000BDE8F8832068C06800F00400F8B1802DDF
:1027E0001ED0402D1CD020680068C0F3C000B0B1DE
:1027F00000BF0020009020680068009020684068BA
:10280000009000BF00BF2046FFF71BFF0820606458
:1028100000BF002084F8400000BF0120D8E7FFE798
:10282000206800682840A84201D1012000E0002073
:10283000B842C3D00020CBE700BFFEE70FB4054B82
:1028400010B503A9044A029800F034F810BC5DF8F2
:1028500014FB0000D92A0008D000002002480068BC
:10286000C0F30220704700000CED00E010B5002816
:1028700004DB0A07130E054A135406E00A07140E78
:10288000034A00F00F031B1FD45410BD00E400E006
:1028900018ED00E002E008C8121F08C1002AFAD1B2
:1028A00070477047002001E001C1121F002AFBD1D0
:1028B000704700002DE9FF4F8BB09A460F46054642
:1028C000002606E025280BD052460D9990476D1C36
:1028D000761C28780028F5D10FB03046BDE8F08F7F
:1028E0000024A0460122604900E0044315F8013F9E
:1028F000203B02FA03F00842F7D128782E2817D19E
:1029000015F8010F44F004042A280ED06FF02F02AE
:102910002878A0F1300109290AD808EB880102EBD8
:10292000410100EB01086D1CF2E757F8048B6D1CA8
:10293000287869283ED006DC0028CDD063280BD04B
:10294000642804D136E0732810D075284BD0524645
:102950000D999047761C85E017F8040B8DF8000060
:1029600000208DF80100E946012003E057F8049BA0
:102970004FF0FF3061074FF0000401D40AE0641CFF
:1029800044450DDA8442FADB19F804100029F6D127
:1029900006E0641C8442FCDB19F804100029F8D11D
:1029A000264404E019F8010B52460D999047641E25
:1029B000F8D257E001CF4FF00A0B002802DA40426C
:1029C0002D2102E0210504D52B218DF824100121B1
:1029D00003E0E10705D02021F7E70DF12009089178
:1029E0000CE00021F9E701CF4FF00A0BF9E7594657
:1029F000FDF7FDFB01F1300209F8012D0028F6D1A9
:102A0000ADEB090000F1200B600701D44FF0010885
:102A1000D84502DDA8EB0B0000E000208046002432
:102A200006E009A85246005D0D999047641C761C8B
:102A300008988442F5DB04E0302052460D99904717
:102A4000761CB8F10001A8F10108F5DC05E019F8E1
:102A5000010B52460D999047761CBBF10001ABF17A
:102A6000010BF4DC6D1C34E7092801001CB500F0F3
:102A700059FE019019E0FDF755FC04462046FDF78C
:102A800033FC0A48007A012808D1002002230246BC
:102A9000014600900648006800F08EFD00BF062148
:102AA00001A800F04FFD00BF00BFE4E75C47002035
:102AB000B400002008B500F035FE009009E04FF4A6
:102AC000C8700449C88000BF0621684600F03AFD7E
:102AD00000BFF4E77000002013B50C464FF47A7382
:102AE000012269460248FEF7C5FF00981CBD0000A0
:102AF0004C02002008B500F015FE0090002455E0BF
:102B0000601CC4B22A48007830B92A4800F06BF83B
:102B1000294800F068F809E025480078012805D127
:102B2000244800F058F8244800F055F8234800786D
:102B300060B9052094FBF0F100FB114010BB204868
:102B400000F042F81F4800F03FF826E01B480078EC
:102B500001280DD1204604EBD0714910A4EB4101AE
:102B600081B9174800F030F8164800F02DF814E04D
:102B700012480078022806D1114800F034F81148B4
:102B800000F031F809E00D480078032805D10C4821
:102B900000F021F80B4800F01EF80A2C00D10024A8
:102BA00000BF6421684600F0CDFC00BFA8E700002C
:102BB000B00000209000002098000020B10000200C
:102BC000A8000020A000002010B50446A1882068BD
:102BD000FDF7F6FD10BD10B50446A188012220685E
:102BE000FDF7F8FD10BD10B50446A188002220684D
:102BF000FDF7F0FD10BD0000FDF704FEFFF7B4FB8C
:102C0000FFF7E2F8FFF7D2FAFFF770F9FFF7DAF90A
:102C1000FFF728FAFFF778FAFFF746F9652205A1D2
:102C200009A0FFF70BFEFEF7DFFFFDF709FB00BF72
:102C3000FEE700002E2E2F436F72652F5372632F15
:102C40006D61696E2E6300005B25733A25645D48F3
:102C5000656C6C6F20576F726C64210A0000000075
:102C600000F060FD0DE042F210720121002000F042
:102C7000A3FA044614B1FEF75FFF01E0FEF77EFF02
:102C800000BFF0E72DE9F04105460E4626480768EB
:102C900026480068001D00F0D3FA50B923480068A8
:102CA00090F82C1001208840214909688143204870
:102CB0000160681CD8B9D6B11E4948681B4909682B
:102CC00088601A4982680968CA6018490968091D3C
:102CD0008268516015490968091D8160154A1349C8
:102CE00009684A6111460968491C11601AE07C199B
:102CF0000E4800684460BC4207D20C480168091DB8
:102D00000D48006800F0C0FA0CE008480168091D91
:102D10000A48006800F0B8FA09480068844201D205
:102D200007480460BDE8F081240000201000002066
:102D30002800002048030020180000201400002074
:102D40004000002010B5044600F0B8FA2F48006893
:102D5000401C2E4908602E48006840B92C48046089
:102D60000846006801280DD100F016F90AE029484C
:102D7000006838B926480068C06AE16A884201D80C
:102D80002348046024480068401C2349086094F8E4
:102D90002C10012088402149096808431F49086018
:102DA000E16A01EB81011E4A02EB81014868A060E3
:102DB0008268E260211D826851608160E16A01EBF6
:102DC0008101174A02EB81026261E16A01EB810134
:102DD000134A52F82110491CE26A02EB8202104B9E
:102DE00043F8221000F07CFA0A48006868B10848ED
:102DF0000068C06AE16A884207D24FF080500949F2
:102E00000860BFF34F8FBFF36F8F10BD200000200D
:102E1000100000202C0000203C0000202800002092
:102E20009402002004ED00E010B516E000F046FA30
:102E30000C48C068C468201D00F002FA0A48006807
:102E4000401E0949086009480068401E074908609B
:102E500000F046FA204600F00BF80448006800280D
:102E6000E4D110BD34030020200000201C0000200D
:102E700010B50446206B00F043FA204600F040FAFB
:102E800010BD000030B54FF48843154800F007042A
:102E90002CB1C01D20F00700114C041B1B1B024667
:102EA000104C226000240F4D6C60D018083820F0C0
:102EB00007000D4C206000240B4D2D686C600A4DFE
:102EC0002D682C601146441A4C60074C24680C6035
:102ED000064D4C682C60064D4C682C6030BD0000DF
:102EE0005C030020500000205800002060000020FB
:102EF0005C00002000BFFFF797FF0648006801282C
:102F0000F9D94FF0805004490860BFF34F8FBFF3E9
:102F10006F8FF0E79402002004ED00E02DE9FF5FE1
:102F200080460E469146DDE90E7A109CA9F101001B
:102F3000216B01EB800B2BF0070B7EB1002507E026
:102F4000715D04F134004155705D00B902E06D1C03
:102F5000102DF5D300BF002143200155052F00D3CC
:102F60000427E762201D00F08CF904F1180000F03E
:102F700088F92461C7F10500A061646241465846A2
:102F8000039A00F007F92060BAF1000F01D0CAF8E7
:102F90000040BDE8FF9F000010B5002407E004EBEF
:102FA00084010F4A02EB810000F05EF9641C052CDD
:102FB000F5D30C4800F058F90B4800F055F90B48D0
:102FC00000F052F90A4800F04FF90A4800F04CF9B5
:102FD00004480949086004480849086010BD000019
:102FE00094020020F80200200C030020200300209F
:102FF00034030020480300201400002018000020A3
:1030000010B50146164800E0006803688B42FBD308
:103010000246436813448B4204D143684C682344FE
:10302000436001460A464B6813440468A34211D129
:103030000C4C03682468A34208D04B680468646899
:1030400023444B6003681B680B6005E0054B1B685D
:103050000B6001E003680B60884200D0016010BD86
:10306000500000205800002009480068006808B996
:10307000012000E0002020B14FF0FF30054908603A
:1030800005E003480068C0680068024908607047AE
:10309000140000204000002000BFBF2080F31188F2
:1030A000BFF34F8FBFF36F8F00BF00BFFEE700007D
:1030B0002DE9F04705464FF0000900F0A3F930482C
:1030C000006808B9FFF7DEFE75B105F00700C0F132
:1030D0001008C8F1FF30A84201D2012000E0002012
:1030E00008B9454400E00025012000EBE570002808
:1030F00041D0002D3FD02348006885423BD8224E66
:103100003046046801E0264624686068A84202D27E
:1031100020680028F7D11A48006884422BD0306814
:1031200000F10809206830606068401B102807D94A
:1031300067196068401B786065603846FFF760FF7C
:10314000104960680968081A0E4908600846006856
:103150000E490968884203D20A4800680B49086092
:10316000606840F00040606000202060084800680F
:10317000401C0749086000F0A3FB4846BDE8F08703
:10318000580000205C00002050000020600000205B
:1031900064000020001F4FF080730360001F21F0C7
:1031A00001030360001F034B0360143802602038E2
:1031B00070470000993000082DE9F04104460F46A1
:1031C000164600F07BF81C480068443050F8240094
:1031D00080B90121184800684830015556B1304681
:1031E000FFF750FD4FF0805014490860BFF34F8F38
:1031F000BFF36F8F00F074F800F060F80E480068BD
:10320000443050F824506DB137B100210A480068AD
:10321000443040F8241005E0681E0749096844312D
:1032200041F824000021044800684830015500F0AE
:1032300057F82846BDE8F0811000002004ED00E0BA
:1032400001460A69D1E901309860D1E9010358606B
:103250005068884201D18868506000200861106879
:10326000401E10601068704700F1080141604FF087
:10327000FF31816000F10801C1600161002101603E
:10328000704700210161704710B502460B685C1C55
:103290000CB9106907E002F1080000E040684468DA
:1032A00024689C42FAD944684C604C68A1608860EC
:1032B00041600A611468641C146010BD00BFBF2027
:1032C00080F31188BFF34F8FBFF36F8F00BF0348A8
:1032D0000068401C01490860704700006C00002035
:1032E00006480068401E054908600846006820B985
:1032F000002080F3118800BF00BF70476C000020E1
:1033000070B506463546E6B1083D2C466068C00FEC
:10331000B8B12068A8B9606820F00040606000F093
:1033200071F8084960680968084406490860204641
:10333000FFF766FE04480068401C0349086000F07F
:10334000BFFA70BD5C0000206800002000204FF034
:10335000E0210861886102484861072008617047E0
:103360003F19010070B50446002544B100F04AF849
:1033700000212046FFF786FC00F0A2FA05463DB981
:103380004FF0805003490860BFF34F8FBFF36F8F3A
:1033900070BD000004ED00E01CB5124800210B4692
:1033A0008022CDE9001010A1114800F097F80446E2
:1033B000012C14D100BFBF2080F31188BFF34F8FC1
:1033C000BFF36F8F00BF4FF0FF300A490860012044
:1033D0000949086000200949086000F04BF80848D6
:1033E00000681CBD4400002049444C45000000001A
:1033F000F52E0008400000202C00002024000020B2
:103400004800002002480068401C014908607047DD
:103410004C0000201248006818B1012011490860D2
:103420001DE000200F4908600F480068B0FA80F0E6
:10343000C0F11F0101EB81020C4B03EB82004268DB
:103440005268426000F108024368934202D1426828
:10345000526842604268D268054B1A6000BF7047EC
:103460004C0000203400002028000020940200209E
:103470001000002010B50A48006840F47F00084999
:1034800008600846006840F07F400860FFF75EFF74
:10349000002004490860FCF745FE002010BD000034
:1034A00020ED00E06C00002010B500BFBF2080F3CD
:1034B0001188BFF34F8FBFF36F8F00BF00F038F953
:1034C00018B14FF080500449086000BF002080F31D
:1034D000118800BF10BD000004ED00E02DE9FF4F92
:1034E00085B0804689461746DDE912ABB800FFF784
:1034F000DFFD064676B14C20FFF7DAFD04462CB11D
:103500004C212046FCF761FE266304E03046FFF7BD
:10351000F7FE00E000247CB10020CDE900ABCDE94E
:1035200002403A4649464046089BFFF7F7FC2046D2
:10353000FFF708FC012501E04FF0FF35284609B0F0
:10354000BDE8F08F2DE9F047044688464FF00009AA
:10355000FFF758FF16480668206800EB080520684A
:10356000B04207D92068A8420BD9B54209D94FF01B
:10357000010906E02068A84201D8B54201D94FF000
:1035800001092560B9F1000F03D0A81B0021FFF746
:1035900079FB00F095F907463FB94FF08050054997
:1035A0000860BFF34F8FBFF36F8F4846BDE8F087C9
:1035B0002400002004ED00E02DE9F05F81460D4677
:1035C00016461F46DDF828A04FF0010B4C46FFF7CA
:1035D00075FEBAF1000F05D004F1440050F8250043
:1035E000CAF8000004F1480010F805800221415596
:1035F000052F29D2DFE807F027030D171C0004F17F
:10360000440050F82500304304F1440141F82500FE
:103610001BE004F1440050F82500401C04F1440173
:1036200041F8250011E004F1440040F825600CE069
:10363000B8F1020F04D004F1440040F8256001E025
:103640004FF0000B01E000E000BF00BFB8F1010F38
:103650004AD16069D4E902128A60D4E902214A6041
:10366000211D42688A4201D1E16841600022626105
:103670000168491E016094F82C10012088401D4902
:10368000096808431B490860E16A01EB81011A4A95
:1036900002EB81014868A0608268E260211D8268B7
:1036A00051608160E16A01EB8101134A02EB810202
:1036B0006261E16A01EB81010F4A52F82110491C55
:1036C000E26A02EB82020C4B43F822100B49E06ADB
:1036D0000968C96A884207D94FF0805008490860D4
:1036E000BFF34F8FBFF36F8FFFF7FAFD5846BDE86A
:1036F000F09F00002800002094020020100000200D
:1037000004ED00E00549096809B9012005E0044914
:10371000096809B9022000E0002070472C00002051
:103720004C00002001490868704700002400002078
:103730002DE9F04100275748006800287ED15648FF
:103740000068451C544805608DB95448D0F8008085
:1037500053480068514908605148C0F800805148FA
:103760000068401C4F490860FFF77EFC00BF4E48D0
:103770000068854276D300BF48480068006808B9F1
:10378000012000E0002020B14FF0FF3046490860E2
:1037900067E042480068C068C4686668B54202D203
:1037A000414806605DE06069D4E902128A60D4E9AC
:1037B00002214A60211D42688A4201D1E1684160CC
:1037C000002262610168491E0160A06A98B1A06A86
:1037D000D4E907128A60D4E907214A6004F118018C
:1037E00042688A4201D1216A41600022A2620168D6
:1037F000491E016000BF94F82C10012088402B491D
:103800000968084329490860E16A01EB8101284AF7
:1038100002EB81014868A0608268E260211D826835
:1038200051608160E16A01EB8101214A02EB810272
:103830006261E16A01EB81011D4A00E022E052F879
:103840002110491CE26A02EB8202194B43F8221054
:103850001849E06A0968C96A88428DD901278BE74F
:1038600000E000BF13480068C06A00EB8000104908
:1038700051F82000012800D901270F48006800B145
:10388000012704E00D480068401C0C4908603846D8
:10389000BDE8F0814C00002024000020140000202E
:1038A00018000020380000204000002028000020E0
:1038B000940200201000002034000020300000207E
:1038C00070B500240026FFF7F9FC4B480068401E45
:1038D000494908600846006800287DD147480068CB
:1038E000002879D05BE04648C068C468A06AD4E983
:1038F00007128A60D4E907214A6004F1180142687E
:103900008A4201D1216A41600022A2620168491EF7
:1039100001606069D4E902128A60D4E902214A6038
:10392000211D42688A4201D1E16841600022626142
:103930000168491E016094F82C100120884031492B
:10394000096808432F490860E16A01EB81012E4AAA
:1039500002EB81014868A0608268E260211D8268F4
:1039600051608160E16A01EB8101274A02EB81022B
:103970006261E16A01EB8101234A52F82110491C7E
:10398000E26A02EB8202204B43F822101F49E06AF0
:103990000968C96A884202D301201D490860184895
:1039A000006808B9012000E0002000289BD00CB17D
:1039B000FFF75AFB1748056865B100BFFFF7B8FE6F
:1039C00010B10120124908606D1E002DF6D10020B3
:1039D000104908600E4800E009E0006838B101268F
:1039E00030070D490860BFF34F8FBFF36F8FFFF7AC
:1039F00077FC304670BD00004C0000202000002005
:103A00002003002028000020940200201000002045
:103A1000340000203000002004ED00E00203040523
:103A2000060708090A0B0C0D0E0F1010010200000A
:103A3000000000000000010203040607080900005E
:103A40000000010203040000683A000800000020A2
:103A5000D4000000942800083C3B0008D40000205B
:103A6000A44A0000A4280008000000001000000084
:103A70000100000000127A000000000000000000B9
:103A80000000000000000000000000000000000036
:103A90000000000000000000000000000000000026
:103AA0000000000000000000000000000000000016
:103AB0000400000000000000000000000000000002
:103AC00000000000000000000000000000000000F6
:103AD00000000000AAAAAAAABC0100200000C80099
:103AE000040200200C00C800740100200400C8007B
:103AF0002C0100200800C800000801400010000050
:103B00000008014000080000000C01400080000097
:103B1000000C014000400000010100000000000016
:103B2000000000000000000000000000000A010684
:0C3B30001E01000000000000000000006A
:04000005080000ED02
:00000001FF
